:100000000C943E000C9448000C9448000C9448005A
:100010000C9448000C9448000C9448000C94480040
:100020000C9448000C9448000C9448000C94480030
:100030000C9448000C9448000C9448000C94480020
:100040000C9448000C9448000C9448000C94480010
:100050000C9448000C9448000C9448000C94480000
:100060000C9448000C9448000C9448000C944800F0
:100070000C9448000C9448000C94480011241FBEB6
:10008000CFEFD8E0DEBFCDBF0E944A000C946300E2
:100090000C94000083E081B992E081E092B92FEFE7
:1000A00033ED40E3215030404040E1F700C0000014
:1000B00082B92FEF33ED40E3215030404040E1F76B
:0A00C00000C00000EBCFF894FFCF62
:00000001FF
