:100000000C943E000C9448000C9448000C9448005A
:100010000C9448000C9448000C9448000C94480040
:100020000C9448000C9448000C9448000C94480030
:100030000C9448000C9448000C9448000C94480020
:100040000C9448000C9448000C9448000C94480010
:100050000C9448000C9448000C9448000C94480000
:100060000C9448000C9448000C9448000C944800F0
:100070000C9448000C9448000C94480011241FBEB6
:10008000CFEFD8E0DEBFCDBF0E944F000C947400CC
:100090000C94000089B182FB882780F90895CF93E2
:1000A000DF9383E081B91AB8D2E0C1E00E944A0030
:1000B0008823A9F0D2B92FEF83ED90E3215080403F
:1000C0009040E1F700C00000C2B92FEF83ED90E34C
:1000D000215080409040E1F700C00000E7CF80E071
:0C00E00090E0DF91CF910895F894FFCFDD
:00000001FF
