:100000000C943E000C9448000C9448000C9448005A
:100010000C9448000C9448000C9448000C94480040
:100020000C9448000C9448000C9448000C94480030
:100030000C9448000C9448000C9448000C94480020
:100040000C9448000C9448000C9448000C94480010
:100050000C9448000C9448000C9448000C94480000
:100060000C9448000C9448000C9448000C944800F0
:100070000C9448000C9448000C94480011241FBEB6
:10008000CFEFD8E0DEBFCDBF0E945B000C949400A0
:100090000C9400004A9B0BC087EB9BE00197F1F7A3
:1000A00000C0000089B182FB882780F9089580E0B4
:1000B000089582B9089583E081B91AB8C1E0D0E00B
:1000C00011E002E0C430D1051CF012B8C1E0D0E06C
:1000D00012B80E944A008823A9F3C330D105B1F4B5
:1000E0000E944A00811103C0C4E0D0E0EBCF12B9F6
:1000F0008FE99FE00197F1F700C0000002B98FE699
:1001000097E10197F1F700C00000EACF0E944A0092
:10011000882341F0C2B98FE097E20197F1F700C060
:0C0120000000F4CF2196CECFF894FFCF62
:00000001FF
