:100000000C9445000C9457000C9457000C94570026
:100010000C9457000C9457000C9457000C94570004
:100020000C9457000C9457000C9457000C945700F4
:100030000C9457000C9457000C9457000C945700E4
:100040000C9457000C9457000C9457000C945700D4
:100050000C9457000C9457000C9457000C945700C4
:100060000C9457000C9457000C9457000C945700B4
:100070000C9457000C9457000C9457008F00980074
:10008000A100AA00B300BC00C50011241FBECFEF21
:10009000D8E0DEBFCDBF21E0A0E0B1E001C01D92FD
:1000A000A230B207E1F70E946E000C94DD000C94C0
:1000B00000004A9B0BC08FE19EE40197F1F700C05E
:1000C000000089B182FB882780F9089580E00895B7
:1000D0001198109808951098119A089581B183602D
:1000E00081B952980E946800C6E0D0E005E010E0B7
:1000F00084E0E82EF12C93E0C92ED12C22E0A22E30
:10010000B12C88248394912CE0910001F09101019D
:10011000E730F105E8F7E25CFF4F0C94D7000E944E
:100120005900882389F39092010180920001ECCF5D
:100130000E9459008111E8CFB0920101A092000104
:10014000E3CF0E9459008823F9F2D0920101C092B6
:100150000001DACF0E9459008111D6CFF09201013F
:10016000E0920001D1CF0E945900882369F21093D8
:10017000010100930001C8CF0E9459008111C4CF32
:10018000D0930101C0930001BFCF0E946B002FEFFD
:1001900083ED90E3215080409040E1F700C00000E3
:1001A0000E9468001092010110920001ADCFEE0F85
:0E01B000FF1F0590F491E02D0994F894FFCF05
:00000001FF
